:020000040000FA
:060000000A128A110C280F
:10000800FE00030EF0000A08F1000A128A11E12925
:100018000A128A110F2883133E30FD000130FE00BA
:10002800A430FF00203084000A128A11C6210A1267
:100038008A11F70183010A128A11EB28FF000030A8
:100048008A007F088207272800308A000408840A6B
:1000580082070034203432342934203450344F3469
:100068006E34653472342034763461346C346F34D1
:10007800723465347334203465346E34203450342B
:100088004F3472347434413420340D340034203405
:1000980033342934203450344F346E346534723458
:1000A8002034763461346C346F347234653473348C
:1000B800203465346E34203450344F347234743400
:1000C800433420340D34003450346F346E34653486
:1000D800723420346C346F347334203476346134A1
:1000E8006C346F34723465347334203465346E3450
:1000F800203450346F347234743441343A342034F8
:10010800003450346F346E346534723420346C34B7
:100118006F3473342034763461346C346F34723411
:1001280065347334203465346E34203450346F347D
:100138007234743443343A34203400340D34203467
:10014800203451347534653420347134753469344D
:10015800653472346534203468346134633465340A
:100168007234203420340D340034203431342934AE
:1001780050346F346E3465347234203463346134EF
:10018800723461346334743465347234653473346E
:1001980020340D3400340D3420344C346934733435
:1001A80074346F34203463346F346D347034613494
:1001B80064347234653420340D34003420345734B8
:1001C80065346E346134733420340D3400340A12CB
:1001D8008A115A210A128A1175300A128A11852148
:1001E8000A128A118C300A128A1185210A128A1180
:1001F80001300A128A1185210A128A111E300A1248
:100208008A1185210A128A11831203138C1E0D2963
:100218000E290829D930F5007508F7004429B530AA
:100228000A128A1185210A128A11F0283B300A1213
:100238008A1185210A128A11831203138C1E25291B
:1002480026292029D9308500A2300A128A11852151
:100258000A128A11F02858300A128A1185210A12C6
:100268008A11831203138C1E3A293B293529D93068
:100278008800A2300A128A1185210A128A11F028F0
:100288007708F500F6017608003A03194C29F0289A
:100298007508313A03191329033A03191A29013A3F
:1002A80003192F29F0280A128A110C28831603171C
:1002B80088018901831603138501880183120313BA
:1002C800850188017030831603138F040F14981664
:1002D80018121815831603178715831603139A0126
:1002E800CF30990083120313981718131816831622
:1002F800031398168B170B178C16831203138C1283
:100308000800F4009729740884000A128A1128202A
:100318000A128A110A128A11D5210A128A11013089
:10032800F3007308F407740884000A128A1128205D
:100338000A128A11003A031DA229A3298729080055
:10034800533445344C3445344334433449344F34BE
:100358004E344134203455344E34413420344F34F3
:100368005034433449344F344E34313429342034F2
:1003780050344F3452345434203442347E088A0086
:100388007F0882000A128A11C2210A128A1180008B
:10039800840A04087D0603190034FF0A0319FE0ABB
:1003A800C629F20083160313981CDB29DC29D629F9
:1003B8007208831203139900080071088A00700EEE
:0803C8008300FE0E7E0E090009
:04400E00D438FF3F64
:00000001FF
