:020000040000FA
:060000000A128A110C280F
:10000800FE00030EF1000A08F2000A128A1196286F
:100018000A128A110F2883133A30FD000030FE00BF
:100028007C30FF00203084000A128A11B2200A12A4
:100038008A11F601F70183010A128A1123280A128C
:100048008A1153200A128A110330F5000830F4008F
:100058007730F300F30B2E28F40B2E28F50B2E28FF
:10006800831203130C1E39283A2828287608203EC4
:1000780084008313000899000130F6070318F70A73
:100088000030F7071A3076067704031D4C284D28F0
:100098002828F601F70128280A128A110C28831645
:1000A800031788018316031385018801831203133C
:1000B800850188017030831603138F040F141812FA
:1000C8001815831603178715831603139A01CF3063
:1000D800990083120313981718131816831603131D
:1000E80098168B170B178C16831203138C120800A3
:1000F8004134423443344434453446344734483434
:1001080049344A344B344C344D344E344F345034E3
:100118005134523453345434553456345734583493
:1001280059345A34831203138C1E9B289C28A72801
:100138001A0886004230F000F00BA0280000831255
:1001480003131A08850072088A00710E8300FE0ED8
:100158007E0E09007E088A007F0882000A128A1132
:10016800AE200A128A118000840A04087D06031949
:0A0178000034FF0A0319FE0AB22842
:04400E00D438FF3F64
:00000001FF
